{
  "_format": "hh-sol-artifact-1",
  "contractName": "DailyStreakSystem",
  "sourceName": "contracts/DailyStreakSystem.sol",
  "abi": [
    {
      "inputs": [
        {
          "internalType": "address",
          "name": "initialOwner",
          "type": "address"
        },
        {
          "internalType": "address",
          "name": "_externalERC1155Address",
          "type": "address"
        }
      ],
      "stateMutability": "nonpayable",
      "type": "constructor"
    },
    {
      "inputs": [
        {
          "internalType": "address",
          "name": "owner",
          "type": "address"
        }
      ],
      "name": "OwnableInvalidOwner",
      "type": "error"
    },
    {
      "inputs": [
        {
          "internalType": "address",
          "name": "account",
          "type": "address"
        }
      ],
      "name": "OwnableUnauthorizedAccount",
      "type": "error"
    },
    {
      "anonymous": false,
      "inputs": [
        {
          "indexed": true,
          "internalType": "address",
          "name": "user",
          "type": "address"
        },
        {
          "indexed": false,
          "internalType": "uint256",
          "name": "streak",
          "type": "uint256"
        }
      ],
      "name": "Claimed",
      "type": "event"
    },
    {
      "anonymous": false,
      "inputs": [
        {
          "indexed": true,
          "internalType": "address",
          "name": "previousOwner",
          "type": "address"
        },
        {
          "indexed": true,
          "internalType": "address",
          "name": "newOwner",
          "type": "address"
        }
      ],
      "name": "OwnershipTransferred",
      "type": "event"
    },
    {
      "inputs": [],
      "name": "claim",
      "outputs": [],
      "stateMutability": "nonpayable",
      "type": "function"
    },
    {
      "inputs": [
        {
          "internalType": "address",
          "name": "user",
          "type": "address"
        },
        {
          "internalType": "uint256",
          "name": "hoursAgo",
          "type": "uint256"
        }
      ],
      "name": "claimHoursAgo",
      "outputs": [],
      "stateMutability": "nonpayable",
      "type": "function"
    },
    {
      "inputs": [],
      "name": "externalERC1155",
      "outputs": [
        {
          "internalType": "contract IExternalERC1155",
          "name": "",
          "type": "address"
        }
      ],
      "stateMutability": "view",
      "type": "function"
    },
    {
      "inputs": [],
      "name": "getBlockTimestamp",
      "outputs": [
        {
          "internalType": "uint256",
          "name": "",
          "type": "uint256"
        }
      ],
      "stateMutability": "view",
      "type": "function"
    },
    {
      "inputs": [
        {
          "internalType": "address",
          "name": "user",
          "type": "address"
        }
      ],
      "name": "getLastClaimed",
      "outputs": [
        {
          "internalType": "uint256",
          "name": "",
          "type": "uint256"
        }
      ],
      "stateMutability": "view",
      "type": "function"
    },
    {
      "inputs": [
        {
          "internalType": "address",
          "name": "user",
          "type": "address"
        }
      ],
      "name": "getStreak",
      "outputs": [
        {
          "internalType": "uint256",
          "name": "",
          "type": "uint256"
        }
      ],
      "stateMutability": "view",
      "type": "function"
    },
    {
      "inputs": [
        {
          "internalType": "address",
          "name": "",
          "type": "address"
        }
      ],
      "name": "lastClaimed",
      "outputs": [
        {
          "internalType": "uint256",
          "name": "",
          "type": "uint256"
        }
      ],
      "stateMutability": "view",
      "type": "function"
    },
    {
      "inputs": [
        {
          "internalType": "uint256",
          "name": "",
          "type": "uint256"
        }
      ],
      "name": "milestoneToTokenId",
      "outputs": [
        {
          "internalType": "uint256",
          "name": "",
          "type": "uint256"
        }
      ],
      "stateMutability": "view",
      "type": "function"
    },
    {
      "inputs": [],
      "name": "owner",
      "outputs": [
        {
          "internalType": "address",
          "name": "",
          "type": "address"
        }
      ],
      "stateMutability": "view",
      "type": "function"
    },
    {
      "inputs": [],
      "name": "renounceOwnership",
      "outputs": [],
      "stateMutability": "nonpayable",
      "type": "function"
    },
    {
      "inputs": [
        {
          "internalType": "address",
          "name": "_externalERC1155Address",
          "type": "address"
        }
      ],
      "name": "setExternalERC1155",
      "outputs": [],
      "stateMutability": "nonpayable",
      "type": "function"
    },
    {
      "inputs": [
        {
          "internalType": "uint256",
          "name": "milestone",
          "type": "uint256"
        },
        {
          "internalType": "uint256",
          "name": "tokenId",
          "type": "uint256"
        }
      ],
      "name": "setMilestone",
      "outputs": [],
      "stateMutability": "nonpayable",
      "type": "function"
    },
    {
      "inputs": [
        {
          "internalType": "address",
          "name": "user",
          "type": "address"
        },
        {
          "internalType": "uint256",
          "name": "_streak",
          "type": "uint256"
        }
      ],
      "name": "setStreak",
      "outputs": [],
      "stateMutability": "nonpayable",
      "type": "function"
    },
    {
      "inputs": [
        {
          "internalType": "address",
          "name": "",
          "type": "address"
        }
      ],
      "name": "streak",
      "outputs": [
        {
          "internalType": "uint256",
          "name": "",
          "type": "uint256"
        }
      ],
      "stateMutability": "view",
      "type": "function"
    },
    {
      "inputs": [
        {
          "internalType": "address",
          "name": "user",
          "type": "address"
        }
      ],
      "name": "timeUntilCanClaim",
      "outputs": [
        {
          "internalType": "uint256",
          "name": "",
          "type": "uint256"
        }
      ],
      "stateMutability": "view",
      "type": "function"
    },
    {
      "inputs": [
        {
          "internalType": "address",
          "name": "user",
          "type": "address"
        }
      ],
      "name": "timeUntilStreakReset",
      "outputs": [
        {
          "internalType": "uint256",
          "name": "",
          "type": "uint256"
        }
      ],
      "stateMutability": "view",
      "type": "function"
    },
    {
      "inputs": [
        {
          "internalType": "address",
          "name": "newOwner",
          "type": "address"
        }
      ],
      "name": "transferOwnership",
      "outputs": [],
      "stateMutability": "nonpayable",
      "type": "function"
    }
  ],
  "bytecode": "0x608060405234801561001057600080fd5b5060405161161b38038061161b83398181016040528101906100329190610224565b81600073ffffffffffffffffffffffffffffffffffffffff168173ffffffffffffffffffffffffffffffffffffffff16036100a55760006040517f1e4fbdf700000000000000000000000000000000000000000000000000000000815260040161009c9190610273565b60405180910390fd5b6100b4816100fd60201b60201c565b5080600160006101000a81548173ffffffffffffffffffffffffffffffffffffffff021916908373ffffffffffffffffffffffffffffffffffffffff160217905550505061028e565b60008060009054906101000a900473ffffffffffffffffffffffffffffffffffffffff169050816000806101000a81548173ffffffffffffffffffffffffffffffffffffffff021916908373ffffffffffffffffffffffffffffffffffffffff1602179055508173ffffffffffffffffffffffffffffffffffffffff168173ffffffffffffffffffffffffffffffffffffffff167f8be0079c531659141344cd1fd0a4f28419497f9722a3daafe3b4186f6b6457e060405160405180910390a35050565b600080fd5b600073ffffffffffffffffffffffffffffffffffffffff82169050919050565b60006101f1826101c6565b9050919050565b610201816101e6565b811461020c57600080fd5b50565b60008151905061021e816101f8565b92915050565b6000806040838503121561023b5761023a6101c1565b5b60006102498582860161020f565b925050602061025a8582860161020f565b9150509250929050565b61026d816101e6565b82525050565b60006020820190506102886000830184610264565b92915050565b61137e8061029d6000396000f3fe608060405234801561001057600080fd5b506004361061010b5760003560e01c8063799cb3b4116100a25780638da5cb5b116100715780638da5cb5b146102b8578063ac40e390146102d6578063c23f628b14610306578063eaecdc2d14610322578063f2fde38b1461033e5761010b565b8063799cb3b41461020a5780637e4781e11461023a57806384874b9114610258578063875b282f146102885761010b565b80635eeadb0d116100de5780635eeadb0d146101825780636a2a6518146101b2578063715018a6146101e2578063796b89b9146101ec5761010b565b8063013eba92146101105780633b6c02fc146101405780633ed0cd211461015c5780634e71d92d14610178575b600080fd5b61012a60048036038101906101259190610ea9565b61035a565b6040516101379190610eef565b60405180910390f35b61015a60048036038101906101559190610f36565b610372565b005b61017660048036038101906101719190610f76565b6103c2565b005b61018061048d565b005b61019c60048036038101906101979190610ea9565b61086e565b6040516101a99190610eef565b60405180910390f35b6101cc60048036038101906101c79190610ea9565b6108b7565b6040516101d99190610eef565b60405180910390f35b6101ea6108cf565b005b6101f46108e3565b6040516102019190610eef565b60405180910390f35b610224600480360381019061021f9190610ea9565b6108eb565b6040516102319190610eef565b60405180910390f35b610242610934565b60405161024f9190611015565b60405180910390f35b610272600480360381019061026d9190610ea9565b61095a565b60405161027f9190610eef565b60405180910390f35b6102a2600480360381019061029d9190610ea9565b610a69565b6040516102af9190610eef565b60405180910390f35b6102c0610b78565b6040516102cd919061103f565b60405180910390f35b6102f060048036038101906102eb919061105a565b610ba1565b6040516102fd9190610eef565b60405180910390f35b610320600480360381019061031b9190610ea9565b610bb9565b005b61033c60048036038101906103379190610f36565b610c05565b005b61035860048036038101906103539190610ea9565b610c6d565b005b60036020528060005260406000206000915090505481565b61037a610cf3565b80600260008473ffffffffffffffffffffffffffffffffffffffff1673ffffffffffffffffffffffffffffffffffffffff168152602001908152602001600020819055505050565b6103ca610cf3565b60005b6005805490508110156104475782600582815481106103ef576103ee611087565b5b90600052602060002001540361043a576040517f08c379a000000000000000000000000000000000000000000000000000000000815260040161043190611113565b60405180910390fd5b80806001019150506103cd565b5080600460008481526020019081526020016000208190555060058290806001815401808255809150506001900390600052602060002001600090919091909150555050565b6000600360003373ffffffffffffffffffffffffffffffffffffffff1673ffffffffffffffffffffffffffffffffffffffff16815260200190815260200160002054148061052757506202a300600360003373ffffffffffffffffffffffffffffffffffffffff1673ffffffffffffffffffffffffffffffffffffffff16815260200190815260200160002054426105259190611162565b115b15610576576001600260003373ffffffffffffffffffffffffffffffffffffffff1673ffffffffffffffffffffffffffffffffffffffff1681526020019081526020016000208190555061065c565b62015180600360003373ffffffffffffffffffffffffffffffffffffffff1673ffffffffffffffffffffffffffffffffffffffff16815260200190815260200160002054426105c59190611162565b1015610606576040517f08c379a00000000000000000000000000000000000000000000000000000000081526004016105fd906111e2565b60405180910390fd5b600260003373ffffffffffffffffffffffffffffffffffffffff1673ffffffffffffffffffffffffffffffffffffffff168152602001908152602001600020600081548092919061065690611202565b91905055505b42600360003373ffffffffffffffffffffffffffffffffffffffff1673ffffffffffffffffffffffffffffffffffffffff16815260200190815260200160002081905550600060046000600260003373ffffffffffffffffffffffffffffffffffffffff1673ffffffffffffffffffffffffffffffffffffffff16815260200190815260200160002054815260200190815260200160002054146107df57600160009054906101000a900473ffffffffffffffffffffffffffffffffffffffff1673ffffffffffffffffffffffffffffffffffffffff1663731133e93360046000600260003373ffffffffffffffffffffffffffffffffffffffff1673ffffffffffffffffffffffffffffffffffffffff1681526020019081526020016000205481526020019081526020016000205460016040518463ffffffff1660e01b81526004016107ac939291906112bc565b600060405180830381600087803b1580156107c657600080fd5b505af11580156107da573d6000803e3d6000fd5b505050505b3373ffffffffffffffffffffffffffffffffffffffff167fd8138f8a3f377c5259ca548e70e4c2de94f129f5a11036a15b69513cba2b426a600260003373ffffffffffffffffffffffffffffffffffffffff1673ffffffffffffffffffffffffffffffffffffffff168152602001908152602001600020546040516108649190610eef565b60405180910390a2565b6000600260008373ffffffffffffffffffffffffffffffffffffffff1673ffffffffffffffffffffffffffffffffffffffff168152602001908152602001600020549050919050565b60026020528060005260406000206000915090505481565b6108d7610cf3565b6108e16000610d7a565b565b600042905090565b6000600360008373ffffffffffffffffffffffffffffffffffffffff1673ffffffffffffffffffffffffffffffffffffffff168152602001908152602001600020549050919050565b600160009054906101000a900473ffffffffffffffffffffffffffffffffffffffff1681565b600080600360008473ffffffffffffffffffffffffffffffffffffffff1673ffffffffffffffffffffffffffffffffffffffff16815260200190815260200160002054036109ab5760009050610a64565b6202a300600360008473ffffffffffffffffffffffffffffffffffffffff1673ffffffffffffffffffffffffffffffffffffffff16815260200190815260200160002054426109fa9190611162565b10610a085760009050610a64565b600360008373ffffffffffffffffffffffffffffffffffffffff1673ffffffffffffffffffffffffffffffffffffffff1681526020019081526020016000205442610a539190611162565b6202a300610a619190611162565b90505b919050565b600080600360008473ffffffffffffffffffffffffffffffffffffffff1673ffffffffffffffffffffffffffffffffffffffff1681526020019081526020016000205403610aba5760009050610b73565b62015180600360008473ffffffffffffffffffffffffffffffffffffffff1673ffffffffffffffffffffffffffffffffffffffff1681526020019081526020016000205442610b099190611162565b10610b175760009050610b73565b600360008373ffffffffffffffffffffffffffffffffffffffff1673ffffffffffffffffffffffffffffffffffffffff1681526020019081526020016000205442610b629190611162565b62015180610b709190611162565b90505b919050565b60008060009054906101000a900473ffffffffffffffffffffffffffffffffffffffff16905090565b60046020528060005260406000206000915090505481565b610bc1610cf3565b80600160006101000a81548173ffffffffffffffffffffffffffffffffffffffff021916908373ffffffffffffffffffffffffffffffffffffffff16021790555050565b610c0d610cf3565b610e1081610c1b9190611306565b42610c269190611162565b600360008473ffffffffffffffffffffffffffffffffffffffff1673ffffffffffffffffffffffffffffffffffffffff168152602001908152602001600020819055505050565b610c75610cf3565b600073ffffffffffffffffffffffffffffffffffffffff168173ffffffffffffffffffffffffffffffffffffffff1603610ce75760006040517f1e4fbdf7000000000000000000000000000000000000000000000000000000008152600401610cde919061103f565b60405180910390fd5b610cf081610d7a565b50565b610cfb610e3e565b73ffffffffffffffffffffffffffffffffffffffff16610d19610b78565b73ffffffffffffffffffffffffffffffffffffffff1614610d7857610d3c610e3e565b6040517f118cdaa7000000000000000000000000000000000000000000000000000000008152600401610d6f919061103f565b60405180910390fd5b565b60008060009054906101000a900473ffffffffffffffffffffffffffffffffffffffff169050816000806101000a81548173ffffffffffffffffffffffffffffffffffffffff021916908373ffffffffffffffffffffffffffffffffffffffff1602179055508173ffffffffffffffffffffffffffffffffffffffff168173ffffffffffffffffffffffffffffffffffffffff167f8be0079c531659141344cd1fd0a4f28419497f9722a3daafe3b4186f6b6457e060405160405180910390a35050565b600033905090565b600080fd5b600073ffffffffffffffffffffffffffffffffffffffff82169050919050565b6000610e7682610e4b565b9050919050565b610e8681610e6b565b8114610e9157600080fd5b50565b600081359050610ea381610e7d565b92915050565b600060208284031215610ebf57610ebe610e46565b5b6000610ecd84828501610e94565b91505092915050565b6000819050919050565b610ee981610ed6565b82525050565b6000602082019050610f046000830184610ee0565b92915050565b610f1381610ed6565b8114610f1e57600080fd5b50565b600081359050610f3081610f0a565b92915050565b60008060408385031215610f4d57610f4c610e46565b5b6000610f5b85828601610e94565b9250506020610f6c85828601610f21565b9150509250929050565b60008060408385031215610f8d57610f8c610e46565b5b6000610f9b85828601610f21565b9250506020610fac85828601610f21565b9150509250929050565b6000819050919050565b6000610fdb610fd6610fd184610e4b565b610fb6565b610e4b565b9050919050565b6000610fed82610fc0565b9050919050565b6000610fff82610fe2565b9050919050565b61100f81610ff4565b82525050565b600060208201905061102a6000830184611006565b92915050565b61103981610e6b565b82525050565b60006020820190506110546000830184611030565b92915050565b6000602082840312156110705761106f610e46565b5b600061107e84828501610f21565b91505092915050565b7f4e487b7100000000000000000000000000000000000000000000000000000000600052603260045260246000fd5b600082825260208201905092915050565b7f4d696c6573746f6e6520616c7265616479206578697374730000000000000000600082015250565b60006110fd6018836110b6565b9150611108826110c7565b602082019050919050565b6000602082019050818103600083015261112c816110f0565b9050919050565b7f4e487b7100000000000000000000000000000000000000000000000000000000600052601160045260246000fd5b600061116d82610ed6565b915061117883610ed6565b92508282039050818111156111905761118f611133565b5b92915050565b7f596f752063616e206f6e6c7920636c61696d206f6e6365207065722064617900600082015250565b60006111cc601f836110b6565b91506111d782611196565b602082019050919050565b600060208201905081810360008301526111fb816111bf565b9050919050565b600061120d82610ed6565b91507fffffffffffffffffffffffffffffffffffffffffffffffffffffffffffffffff820361123f5761123e611133565b5b600182019050919050565b6000819050919050565b600061126f61126a6112658461124a565b610fb6565b610ed6565b9050919050565b61127f81611254565b82525050565b600082825260208201905092915050565b50565b60006112a6600083611285565b91506112b182611296565b600082019050919050565b60006080820190506112d16000830186611030565b6112de6020830185610ee0565b6112eb6040830184611276565b81810360608301526112fc81611299565b9050949350505050565b600061131182610ed6565b915061131c83610ed6565b925082820261132a81610ed6565b9150828204841483151761134157611340611133565b5b509291505056fea2646970667358221220653b0152a9348a3fee0b44b5c2b2cf9eff5fd2c4c8b828b77c8920362b66378764736f6c634300081c0033",
  "linkReferences": {},
  "deployedLinkReferences": {}
}