{
  "_format": "hh-sol-artifact-1",
  "contractName": "RoguesItems",
  "sourceName": "contracts/RoguesItems.sol",
  "abi": [
    {
      "inputs": [
        {
          "internalType": "address",
          "name": "defaultAdmin",
          "type": "address"
        },
        {
          "internalType": "address",
          "name": "pauser",
          "type": "address"
        },
        {
          "internalType": "address",
          "name": "minter",
          "type": "address"
        }
      ],
      "stateMutability": "nonpayable",
      "type": "constructor"
    },
    {
      "inputs": [],
      "name": "AccessControlBadConfirmation",
      "type": "error"
    },
    {
      "inputs": [
        {
          "internalType": "address",
          "name": "account",
          "type": "address"
        },
        {
          "internalType": "bytes32",
          "name": "neededRole",
          "type": "bytes32"
        }
      ],
      "name": "AccessControlUnauthorizedAccount",
      "type": "error"
    },
    {
      "inputs": [
        {
          "internalType": "address",
          "name": "sender",
          "type": "address"
        },
        {
          "internalType": "uint256",
          "name": "balance",
          "type": "uint256"
        },
        {
          "internalType": "uint256",
          "name": "needed",
          "type": "uint256"
        },
        {
          "internalType": "uint256",
          "name": "tokenId",
          "type": "uint256"
        }
      ],
      "name": "ERC1155InsufficientBalance",
      "type": "error"
    },
    {
      "inputs": [
        {
          "internalType": "address",
          "name": "approver",
          "type": "address"
        }
      ],
      "name": "ERC1155InvalidApprover",
      "type": "error"
    },
    {
      "inputs": [
        {
          "internalType": "uint256",
          "name": "idsLength",
          "type": "uint256"
        },
        {
          "internalType": "uint256",
          "name": "valuesLength",
          "type": "uint256"
        }
      ],
      "name": "ERC1155InvalidArrayLength",
      "type": "error"
    },
    {
      "inputs": [
        {
          "internalType": "address",
          "name": "operator",
          "type": "address"
        }
      ],
      "name": "ERC1155InvalidOperator",
      "type": "error"
    },
    {
      "inputs": [
        {
          "internalType": "address",
          "name": "receiver",
          "type": "address"
        }
      ],
      "name": "ERC1155InvalidReceiver",
      "type": "error"
    },
    {
      "inputs": [
        {
          "internalType": "address",
          "name": "sender",
          "type": "address"
        }
      ],
      "name": "ERC1155InvalidSender",
      "type": "error"
    },
    {
      "inputs": [
        {
          "internalType": "address",
          "name": "operator",
          "type": "address"
        },
        {
          "internalType": "address",
          "name": "owner",
          "type": "address"
        }
      ],
      "name": "ERC1155MissingApprovalForAll",
      "type": "error"
    },
    {
      "inputs": [],
      "name": "EnforcedPause",
      "type": "error"
    },
    {
      "inputs": [],
      "name": "ExpectedPause",
      "type": "error"
    },
    {
      "anonymous": false,
      "inputs": [
        {
          "indexed": true,
          "internalType": "address",
          "name": "account",
          "type": "address"
        },
        {
          "indexed": true,
          "internalType": "address",
          "name": "operator",
          "type": "address"
        },
        {
          "indexed": false,
          "internalType": "bool",
          "name": "approved",
          "type": "bool"
        }
      ],
      "name": "ApprovalForAll",
      "type": "event"
    },
    {
      "anonymous": false,
      "inputs": [
        {
          "indexed": false,
          "internalType": "address",
          "name": "account",
          "type": "address"
        }
      ],
      "name": "Paused",
      "type": "event"
    },
    {
      "anonymous": false,
      "inputs": [
        {
          "indexed": true,
          "internalType": "bytes32",
          "name": "role",
          "type": "bytes32"
        },
        {
          "indexed": true,
          "internalType": "bytes32",
          "name": "previousAdminRole",
          "type": "bytes32"
        },
        {
          "indexed": true,
          "internalType": "bytes32",
          "name": "newAdminRole",
          "type": "bytes32"
        }
      ],
      "name": "RoleAdminChanged",
      "type": "event"
    },
    {
      "anonymous": false,
      "inputs": [
        {
          "indexed": true,
          "internalType": "bytes32",
          "name": "role",
          "type": "bytes32"
        },
        {
          "indexed": true,
          "internalType": "address",
          "name": "account",
          "type": "address"
        },
        {
          "indexed": true,
          "internalType": "address",
          "name": "sender",
          "type": "address"
        }
      ],
      "name": "RoleGranted",
      "type": "event"
    },
    {
      "anonymous": false,
      "inputs": [
        {
          "indexed": true,
          "internalType": "bytes32",
          "name": "role",
          "type": "bytes32"
        },
        {
          "indexed": true,
          "internalType": "address",
          "name": "account",
          "type": "address"
        },
        {
          "indexed": true,
          "internalType": "address",
          "name": "sender",
          "type": "address"
        }
      ],
      "name": "RoleRevoked",
      "type": "event"
    },
    {
      "anonymous": false,
      "inputs": [
        {
          "indexed": true,
          "internalType": "address",
          "name": "operator",
          "type": "address"
        },
        {
          "indexed": true,
          "internalType": "address",
          "name": "from",
          "type": "address"
        },
        {
          "indexed": true,
          "internalType": "address",
          "name": "to",
          "type": "address"
        },
        {
          "indexed": false,
          "internalType": "uint256[]",
          "name": "ids",
          "type": "uint256[]"
        },
        {
          "indexed": false,
          "internalType": "uint256[]",
          "name": "values",
          "type": "uint256[]"
        }
      ],
      "name": "TransferBatch",
      "type": "event"
    },
    {
      "anonymous": false,
      "inputs": [
        {
          "indexed": true,
          "internalType": "address",
          "name": "operator",
          "type": "address"
        },
        {
          "indexed": true,
          "internalType": "address",
          "name": "from",
          "type": "address"
        },
        {
          "indexed": true,
          "internalType": "address",
          "name": "to",
          "type": "address"
        },
        {
          "indexed": false,
          "internalType": "uint256",
          "name": "id",
          "type": "uint256"
        },
        {
          "indexed": false,
          "internalType": "uint256",
          "name": "value",
          "type": "uint256"
        }
      ],
      "name": "TransferSingle",
      "type": "event"
    },
    {
      "anonymous": false,
      "inputs": [
        {
          "indexed": false,
          "internalType": "string",
          "name": "value",
          "type": "string"
        },
        {
          "indexed": true,
          "internalType": "uint256",
          "name": "id",
          "type": "uint256"
        }
      ],
      "name": "URI",
      "type": "event"
    },
    {
      "anonymous": false,
      "inputs": [
        {
          "indexed": false,
          "internalType": "address",
          "name": "account",
          "type": "address"
        }
      ],
      "name": "Unpaused",
      "type": "event"
    },
    {
      "inputs": [],
      "name": "DEFAULT_ADMIN_ROLE",
      "outputs": [
        {
          "internalType": "bytes32",
          "name": "",
          "type": "bytes32"
        }
      ],
      "stateMutability": "view",
      "type": "function"
    },
    {
      "inputs": [],
      "name": "MINTER_ROLE",
      "outputs": [
        {
          "internalType": "bytes32",
          "name": "",
          "type": "bytes32"
        }
      ],
      "stateMutability": "view",
      "type": "function"
    },
    {
      "inputs": [],
      "name": "PAUSER_ROLE",
      "outputs": [
        {
          "internalType": "bytes32",
          "name": "",
          "type": "bytes32"
        }
      ],
      "stateMutability": "view",
      "type": "function"
    },
    {
      "inputs": [
        {
          "internalType": "address",
          "name": "account",
          "type": "address"
        },
        {
          "internalType": "uint256",
          "name": "id",
          "type": "uint256"
        }
      ],
      "name": "balanceOf",
      "outputs": [
        {
          "internalType": "uint256",
          "name": "",
          "type": "uint256"
        }
      ],
      "stateMutability": "view",
      "type": "function"
    },
    {
      "inputs": [
        {
          "internalType": "address[]",
          "name": "accounts",
          "type": "address[]"
        },
        {
          "internalType": "uint256[]",
          "name": "ids",
          "type": "uint256[]"
        }
      ],
      "name": "balanceOfBatch",
      "outputs": [
        {
          "internalType": "uint256[]",
          "name": "",
          "type": "uint256[]"
        }
      ],
      "stateMutability": "view",
      "type": "function"
    },
    {
      "inputs": [
        {
          "internalType": "address",
          "name": "account",
          "type": "address"
        },
        {
          "internalType": "uint256[]",
          "name": "ids",
          "type": "uint256[]"
        }
      ],
      "name": "balanceOfBatchOneAddr",
      "outputs": [
        {
          "internalType": "uint256[]",
          "name": "",
          "type": "uint256[]"
        }
      ],
      "stateMutability": "view",
      "type": "function"
    },
    {
      "inputs": [
        {
          "internalType": "address",
          "name": "account",
          "type": "address"
        },
        {
          "internalType": "uint256",
          "name": "id",
          "type": "uint256"
        },
        {
          "internalType": "uint256",
          "name": "value",
          "type": "uint256"
        }
      ],
      "name": "burn",
      "outputs": [],
      "stateMutability": "nonpayable",
      "type": "function"
    },
    {
      "inputs": [
        {
          "internalType": "address",
          "name": "account",
          "type": "address"
        },
        {
          "internalType": "uint256[]",
          "name": "ids",
          "type": "uint256[]"
        },
        {
          "internalType": "uint256[]",
          "name": "values",
          "type": "uint256[]"
        }
      ],
      "name": "burnBatch",
      "outputs": [],
      "stateMutability": "nonpayable",
      "type": "function"
    },
    {
      "inputs": [
        {
          "internalType": "bytes32",
          "name": "role",
          "type": "bytes32"
        }
      ],
      "name": "getRoleAdmin",
      "outputs": [
        {
          "internalType": "bytes32",
          "name": "",
          "type": "bytes32"
        }
      ],
      "stateMutability": "view",
      "type": "function"
    },
    {
      "inputs": [
        {
          "internalType": "bytes32",
          "name": "role",
          "type": "bytes32"
        },
        {
          "internalType": "address",
          "name": "account",
          "type": "address"
        }
      ],
      "name": "grantRole",
      "outputs": [],
      "stateMutability": "nonpayable",
      "type": "function"
    },
    {
      "inputs": [
        {
          "internalType": "bytes32",
          "name": "role",
          "type": "bytes32"
        },
        {
          "internalType": "address",
          "name": "account",
          "type": "address"
        }
      ],
      "name": "hasRole",
      "outputs": [
        {
          "internalType": "bool",
          "name": "",
          "type": "bool"
        }
      ],
      "stateMutability": "view",
      "type": "function"
    },
    {
      "inputs": [
        {
          "internalType": "address",
          "name": "account",
          "type": "address"
        },
        {
          "internalType": "address",
          "name": "operator",
          "type": "address"
        }
      ],
      "name": "isApprovedForAll",
      "outputs": [
        {
          "internalType": "bool",
          "name": "",
          "type": "bool"
        }
      ],
      "stateMutability": "view",
      "type": "function"
    },
    {
      "inputs": [
        {
          "internalType": "address",
          "name": "account",
          "type": "address"
        },
        {
          "internalType": "uint256",
          "name": "id",
          "type": "uint256"
        },
        {
          "internalType": "uint256",
          "name": "amount",
          "type": "uint256"
        },
        {
          "internalType": "bytes",
          "name": "data",
          "type": "bytes"
        }
      ],
      "name": "mint",
      "outputs": [],
      "stateMutability": "nonpayable",
      "type": "function"
    },
    {
      "inputs": [
        {
          "internalType": "address",
          "name": "to",
          "type": "address"
        },
        {
          "internalType": "uint256[]",
          "name": "ids",
          "type": "uint256[]"
        },
        {
          "internalType": "uint256[]",
          "name": "amounts",
          "type": "uint256[]"
        },
        {
          "internalType": "bytes",
          "name": "data",
          "type": "bytes"
        }
      ],
      "name": "mintBatch",
      "outputs": [],
      "stateMutability": "nonpayable",
      "type": "function"
    },
    {
      "inputs": [
        {
          "internalType": "address[]",
          "name": "accounts",
          "type": "address[]"
        },
        {
          "internalType": "uint256[]",
          "name": "ids",
          "type": "uint256[]"
        },
        {
          "internalType": "uint256[]",
          "name": "amounts",
          "type": "uint256[]"
        },
        {
          "internalType": "bytes",
          "name": "data",
          "type": "bytes"
        }
      ],
      "name": "mintBatchAddr",
      "outputs": [],
      "stateMutability": "nonpayable",
      "type": "function"
    },
    {
      "inputs": [],
      "name": "pause",
      "outputs": [],
      "stateMutability": "nonpayable",
      "type": "function"
    },
    {
      "inputs": [],
      "name": "paused",
      "outputs": [
        {
          "internalType": "bool",
          "name": "",
          "type": "bool"
        }
      ],
      "stateMutability": "view",
      "type": "function"
    },
    {
      "inputs": [
        {
          "internalType": "bytes32",
          "name": "role",
          "type": "bytes32"
        },
        {
          "internalType": "address",
          "name": "callerConfirmation",
          "type": "address"
        }
      ],
      "name": "renounceRole",
      "outputs": [],
      "stateMutability": "nonpayable",
      "type": "function"
    },
    {
      "inputs": [
        {
          "internalType": "bytes32",
          "name": "role",
          "type": "bytes32"
        },
        {
          "internalType": "address",
          "name": "account",
          "type": "address"
        }
      ],
      "name": "revokeRole",
      "outputs": [],
      "stateMutability": "nonpayable",
      "type": "function"
    },
    {
      "inputs": [
        {
          "internalType": "address",
          "name": "from",
          "type": "address"
        },
        {
          "internalType": "address",
          "name": "to",
          "type": "address"
        },
        {
          "internalType": "uint256[]",
          "name": "ids",
          "type": "uint256[]"
        },
        {
          "internalType": "uint256[]",
          "name": "values",
          "type": "uint256[]"
        },
        {
          "internalType": "bytes",
          "name": "data",
          "type": "bytes"
        }
      ],
      "name": "safeBatchTransferFrom",
      "outputs": [],
      "stateMutability": "nonpayable",
      "type": "function"
    },
    {
      "inputs": [
        {
          "internalType": "address",
          "name": "from",
          "type": "address"
        },
        {
          "internalType": "address",
          "name": "to",
          "type": "address"
        },
        {
          "internalType": "uint256",
          "name": "id",
          "type": "uint256"
        },
        {
          "internalType": "uint256",
          "name": "value",
          "type": "uint256"
        },
        {
          "internalType": "bytes",
          "name": "data",
          "type": "bytes"
        }
      ],
      "name": "safeTransferFrom",
      "outputs": [],
      "stateMutability": "nonpayable",
      "type": "function"
    },
    {
      "inputs": [
        {
          "internalType": "address",
          "name": "operator",
          "type": "address"
        },
        {
          "internalType": "bool",
          "name": "approved",
          "type": "bool"
        }
      ],
      "name": "setApprovalForAll",
      "outputs": [],
      "stateMutability": "nonpayable",
      "type": "function"
    },
    {
      "inputs": [
        {
          "internalType": "string",
          "name": "newuri",
          "type": "string"
        }
      ],
      "name": "setURI",
      "outputs": [],
      "stateMutability": "nonpayable",
      "type": "function"
    },
    {
      "inputs": [
        {
          "internalType": "bytes4",
          "name": "interfaceId",
          "type": "bytes4"
        }
      ],
      "name": "supportsInterface",
      "outputs": [
        {
          "internalType": "bool",
          "name": "",
          "type": "bool"
        }
      ],
      "stateMutability": "view",
      "type": "function"
    },
    {
      "inputs": [],
      "name": "unpause",
      "outputs": [],
      "stateMutability": "nonpayable",
      "type": "function"
    },
    {
      "inputs": [
        {
          "internalType": "uint256",
          "name": "tokenId",
          "type": "uint256"
        }
      ],
      "name": "uri",
      "outputs": [
        {
          "internalType": "string",
          "name": "",
          "type": "string"
        }
      ],
      "stateMutability": "view",
      "type": "function"
    }
  ],
  "bytecode": "0x608060405234801561001057600080fd5b50604051613f17380380613f17833981810160405281019061003291906102d2565b60405180602001604052806000815250610051816100eb60201b60201c565b506000600460006101000a81548160ff0219169083151502179055506100806000801b846100fe60201b60201c565b506100b17f65d7a28e3265b37a6474929f336521b332c1681b933f6cb9f3376673440d862a836100fe60201b60201c565b506100e27f9f2df0fed2c77648de5860a4cc508cd0818c85b8b8a1ab4ceeef8d981c8956a6826100fe60201b60201c565b50505050610647565b80600290816100fa9190610575565b5050565b600061011083836101fc60201b60201c565b6101f15760016003600085815260200190815260200160002060000160008473ffffffffffffffffffffffffffffffffffffffff1673ffffffffffffffffffffffffffffffffffffffff16815260200190815260200160002060006101000a81548160ff02191690831515021790555061018e61026760201b60201c565b73ffffffffffffffffffffffffffffffffffffffff168273ffffffffffffffffffffffffffffffffffffffff16847f2f8788117e7eff1d82e926ec794901d17c78024a50270940304540a733656f0d60405160405180910390a4600190506101f6565b600090505b92915050565b60006003600084815260200190815260200160002060000160008373ffffffffffffffffffffffffffffffffffffffff1673ffffffffffffffffffffffffffffffffffffffff16815260200190815260200160002060009054906101000a900460ff16905092915050565b600033905090565b600080fd5b600073ffffffffffffffffffffffffffffffffffffffff82169050919050565b600061029f82610274565b9050919050565b6102af81610294565b81146102ba57600080fd5b50565b6000815190506102cc816102a6565b92915050565b6000806000606084860312156102eb576102ea61026f565b5b60006102f9868287016102bd565b935050602061030a868287016102bd565b925050604061031b868287016102bd565b9150509250925092565b600081519050919050565b7f4e487b7100000000000000000000000000000000000000000000000000000000600052604160045260246000fd5b7f4e487b7100000000000000000000000000000000000000000000000000000000600052602260045260246000fd5b600060028204905060018216806103a657607f821691505b6020821081036103b9576103b861035f565b5b50919050565b60008190508160005260206000209050919050565b60006020601f8301049050919050565b600082821b905092915050565b6000600883026104217fffffffffffffffffffffffffffffffffffffffffffffffffffffffffffffffff826103e4565b61042b86836103e4565b95508019841693508086168417925050509392505050565b6000819050919050565b6000819050919050565b600061047261046d61046884610443565b61044d565b610443565b9050919050565b6000819050919050565b61048c83610457565b6104a061049882610479565b8484546103f1565b825550505050565b600090565b6104b56104a8565b6104c0818484610483565b505050565b5b818110156104e4576104d96000826104ad565b6001810190506104c6565b5050565b601f821115610529576104fa816103bf565b610503846103d4565b81016020851015610512578190505b61052661051e856103d4565b8301826104c5565b50505b505050565b600082821c905092915050565b600061054c6000198460080261052e565b1980831691505092915050565b6000610565838361053b565b9150826002028217905092915050565b61057e82610325565b67ffffffffffffffff81111561059757610596610330565b5b6105a1825461038e565b6105ac8282856104e8565b600060209050601f8311600181146105df57600084156105cd578287015190505b6105d78582610559565b86555061063f565b601f1984166105ed866103bf565b60005b82811015610615578489015182556001820191506020850194506020810190506105f0565b86831015610632578489015161062e601f89168261053b565b8355505b6001600288020188555050505b505050505050565b6138c1806106566000396000f3fe608060405234801561001057600080fd5b506004361061018d5760003560e01c80635c975abb116100de578063a22cb46511610097578063e63ab1e911610071578063e63ab1e914610468578063e985e9c514610486578063f242432a146104b6578063f5298aca146104d25761018d565b8063a22cb46514610412578063d53913931461042e578063d547741f1461044c5761018d565b80635c975abb146103645780636b20c45414610382578063731133e91461039e5780638456cb59146103ba57806391d14854146103c4578063a217fddf146103f45761018d565b80632e240ade1161014b57806336568abe1161012557806336568abe146102f25780633f4ba83a1461030e5780634e1273f414610318578063503a28bd146103485761018d565b80632e240ade1461028a5780632eb2c2d6146102ba5780632f2ff15d146102d65761018d565b8062fdd58e1461019257806301ffc9a7146101c257806302fe5305146101f25780630e89341c1461020e5780631f7fdffa1461023e578063248a9ca31461025a575b600080fd5b6101ac60048036038101906101a791906124de565b6104ee565b6040516101b9919061252d565b60405180910390f35b6101dc60048036038101906101d791906125a0565b610548565b6040516101e991906125e8565b60405180910390f35b61020c60048036038101906102079190612749565b61055a565b005b61022860048036038101906102239190612792565b610574565b604051610235919061283e565b60405180910390f35b610258600480360381019061025391906129c9565b6105b5565b005b610274600480360381019061026f9190612aba565b6105f2565b6040516102819190612af6565b60405180910390f35b6102a4600480360381019061029f9190612b11565b610612565b6040516102b19190612c2b565b60405180910390f35b6102d460048036038101906102cf9190612c4d565b6106c7565b005b6102f060048036038101906102eb9190612d1c565b61076f565b005b61030c60048036038101906103079190612d1c565b610791565b005b61031661080c565b005b610332600480360381019061032d9190612e1f565b610841565b60405161033f9190612c2b565b60405180910390f35b610362600480360381019061035d9190612e97565b61094a565b005b61036c6109ed565b60405161037991906125e8565b60405180910390f35b61039c60048036038101906103979190612f6e565b610a04565b005b6103b860048036038101906103b39190612ff9565b610ab0565b005b6103c2610aed565b005b6103de60048036038101906103d99190612d1c565b610b22565b6040516103eb91906125e8565b60405180910390f35b6103fc610b8d565b6040516104099190612af6565b60405180910390f35b61042c600480360381019061042791906130a8565b610b94565b005b610436610baa565b6040516104439190612af6565b60405180910390f35b61046660048036038101906104619190612d1c565b610bce565b005b610470610bf0565b60405161047d9190612af6565b60405180910390f35b6104a0600480360381019061049b91906130e8565b610c14565b6040516104ad91906125e8565b60405180910390f35b6104d060048036038101906104cb9190613128565b610ca8565b005b6104ec60048036038101906104e791906131bf565b610d50565b005b600080600083815260200190815260200160002060008473ffffffffffffffffffffffffffffffffffffffff1673ffffffffffffffffffffffffffffffffffffffff16815260200190815260200160002054905092915050565b600061055382610dfc565b9050919050565b6000801b61056781610e76565b61057082610e8a565b5050565b6060600061058183610e9d565b90508061058d84610f31565b60405160200161059e92919061324e565b604051602081830303815290604052915050919050565b7f9f2df0fed2c77648de5860a4cc508cd0818c85b8b8a1ab4ceeef8d981c8956a66105df81610e76565b6105eb85858585610fff565b5050505050565b600060036000838152602001908152602001600020600101549050919050565b60606000825167ffffffffffffffff8111156106315761063061261e565b5b60405190808252806020026020018201604052801561065f5781602001602082028036833780820191505090505b50905060005b83518110156106bc576106928585838151811061068557610684613272565b5b60200260200101516104ee565b8282815181106106a5576106a4613272565b5b602002602001018181525050806001019050610665565b508091505092915050565b60006106d1611085565b90508073ffffffffffffffffffffffffffffffffffffffff168673ffffffffffffffffffffffffffffffffffffffff161415801561071657506107148682610c14565b155b1561075a5780866040517fe237d9220000000000000000000000000000000000000000000000000000000081526004016107519291906132b0565b60405180910390fd5b610767868686868661108d565b505050505050565b610778826105f2565b61078181610e76565b61078b8383611185565b50505050565b610799611085565b73ffffffffffffffffffffffffffffffffffffffff168173ffffffffffffffffffffffffffffffffffffffff16146107fd576040517f6697b23200000000000000000000000000000000000000000000000000000000815260040160405180910390fd5b6108078282611277565b505050565b7f65d7a28e3265b37a6474929f336521b332c1681b933f6cb9f3376673440d862a61083681610e76565b61083e61136a565b50565b6060815183511461088d57815183516040517f5b0599910000000000000000000000000000000000000000000000000000000081526004016108849291906132d9565b60405180910390fd5b6000835167ffffffffffffffff8111156108aa576108a961261e565b5b6040519080825280602002602001820160405280156108d85781602001602082028036833780820191505090505b50905060005b845181101561093f576109156108fd82876113cd90919063ffffffff16565b61091083876113e190919063ffffffff16565b6104ee565b82828151811061092857610927613272565b5b6020026020010181815250508060010190506108de565b508091505092915050565b7f9f2df0fed2c77648de5860a4cc508cd0818c85b8b8a1ab4ceeef8d981c8956a661097481610e76565b60005b85518110156109e5576109da86828151811061099657610995613272565b5b60200260200101518683815181106109b1576109b0613272565b5b60200260200101518684815181106109cc576109cb613272565b5b6020026020010151866113f5565b806001019050610977565b505050505050565b6000600460009054906101000a900460ff16905090565b610a0c611085565b73ffffffffffffffffffffffffffffffffffffffff168373ffffffffffffffffffffffffffffffffffffffff1614158015610a555750610a5383610a4e611085565b610c14565b155b15610aa057610a62611085565b836040517fe237d922000000000000000000000000000000000000000000000000000000008152600401610a979291906132b0565b60405180910390fd5b610aab83838361148e565b505050565b7f9f2df0fed2c77648de5860a4cc508cd0818c85b8b8a1ab4ceeef8d981c8956a6610ada81610e76565b610ae6858585856113f5565b5050505050565b7f65d7a28e3265b37a6474929f336521b332c1681b933f6cb9f3376673440d862a610b1781610e76565b610b1f611522565b50565b60006003600084815260200190815260200160002060000160008373ffffffffffffffffffffffffffffffffffffffff1673ffffffffffffffffffffffffffffffffffffffff16815260200190815260200160002060009054906101000a900460ff16905092915050565b6000801b81565b610ba6610b9f611085565b8383611585565b5050565b7f9f2df0fed2c77648de5860a4cc508cd0818c85b8b8a1ab4ceeef8d981c8956a681565b610bd7826105f2565b610be081610e76565b610bea8383611277565b50505050565b7f65d7a28e3265b37a6474929f336521b332c1681b933f6cb9f3376673440d862a81565b6000600160008473ffffffffffffffffffffffffffffffffffffffff1673ffffffffffffffffffffffffffffffffffffffff16815260200190815260200160002060008373ffffffffffffffffffffffffffffffffffffffff1673ffffffffffffffffffffffffffffffffffffffff16815260200190815260200160002060009054906101000a900460ff16905092915050565b6000610cb2611085565b90508073ffffffffffffffffffffffffffffffffffffffff168673ffffffffffffffffffffffffffffffffffffffff1614158015610cf75750610cf58682610c14565b155b15610d3b5780866040517fe237d922000000000000000000000000000000000000000000000000000000008152600401610d329291906132b0565b60405180910390fd5b610d4886868686866116f5565b505050505050565b610d58611085565b73ffffffffffffffffffffffffffffffffffffffff168373ffffffffffffffffffffffffffffffffffffffff1614158015610da15750610d9f83610d9a611085565b610c14565b155b15610dec57610dae611085565b836040517fe237d922000000000000000000000000000000000000000000000000000000008152600401610de39291906132b0565b60405180910390fd5b610df7838383611800565b505050565b60007f7965db0b000000000000000000000000000000000000000000000000000000007bffffffffffffffffffffffffffffffffffffffffffffffffffffffff1916827bffffffffffffffffffffffffffffffffffffffffffffffffffffffff19161480610e6f5750610e6e826118a7565b5b9050919050565b610e8781610e82611085565b611989565b50565b8060029081610e99919061350e565b5050565b606060028054610eac90613331565b80601f0160208091040260200160405190810160405280929190818152602001828054610ed890613331565b8015610f255780601f10610efa57610100808354040283529160200191610f25565b820191906000526020600020905b815481529060010190602001808311610f0857829003601f168201915b50505050509050919050565b606060006001610f40846119da565b01905060008167ffffffffffffffff811115610f5f57610f5e61261e565b5b6040519080825280601f01601f191660200182016040528015610f915781602001600182028036833780820191505090505b509050600082602001820190505b600115610ff4578080600190039150507f3031323334353637383961626364656600000000000000000000000000000000600a86061a8153600a8581610fe857610fe76135e0565b5b04945060008503610f9f575b819350505050919050565b600073ffffffffffffffffffffffffffffffffffffffff168473ffffffffffffffffffffffffffffffffffffffff16036110715760006040517f57f447ce000000000000000000000000000000000000000000000000000000008152600401611068919061360f565b60405180910390fd5b61107f600085858585611b2d565b50505050565b600033905090565b600073ffffffffffffffffffffffffffffffffffffffff168473ffffffffffffffffffffffffffffffffffffffff16036110ff5760006040517f57f447ce0000000000000000000000000000000000000000000000000000000081526004016110f6919061360f565b60405180910390fd5b600073ffffffffffffffffffffffffffffffffffffffff168573ffffffffffffffffffffffffffffffffffffffff16036111715760006040517f01a83514000000000000000000000000000000000000000000000000000000008152600401611168919061360f565b60405180910390fd5b61117e8585858585611b2d565b5050505050565b60006111918383610b22565b61126c5760016003600085815260200190815260200160002060000160008473ffffffffffffffffffffffffffffffffffffffff1673ffffffffffffffffffffffffffffffffffffffff16815260200190815260200160002060006101000a81548160ff021916908315150217905550611209611085565b73ffffffffffffffffffffffffffffffffffffffff168273ffffffffffffffffffffffffffffffffffffffff16847f2f8788117e7eff1d82e926ec794901d17c78024a50270940304540a733656f0d60405160405180910390a460019050611271565b600090505b92915050565b60006112838383610b22565b1561135f5760006003600085815260200190815260200160002060000160008473ffffffffffffffffffffffffffffffffffffffff1673ffffffffffffffffffffffffffffffffffffffff16815260200190815260200160002060006101000a81548160ff0219169083151502179055506112fc611085565b73ffffffffffffffffffffffffffffffffffffffff168273ffffffffffffffffffffffffffffffffffffffff16847ff6391f5c32d9c69d2a47ea670b442974b53935d1edc7fd64eb21e047a839171b60405160405180910390a460019050611364565b600090505b92915050565b611372611bdf565b6000600460006101000a81548160ff0219169083151502179055507f5db9ee0a495bf2e6ff9c91a7834c1ba4fdd244a5e8aa4e537bd38aeae4b073aa6113b6611085565b6040516113c3919061360f565b60405180910390a1565b600060208202602084010151905092915050565b600060208202602084010151905092915050565b600073ffffffffffffffffffffffffffffffffffffffff168473ffffffffffffffffffffffffffffffffffffffff16036114675760006040517f57f447ce00000000000000000000000000000000000000000000000000000000815260040161145e919061360f565b60405180910390fd5b6000806114748585611c1f565b91509150611486600087848487611b2d565b505050505050565b600073ffffffffffffffffffffffffffffffffffffffff168373ffffffffffffffffffffffffffffffffffffffff16036115005760006040517f01a835140000000000000000000000000000000000000000000000000000000081526004016114f7919061360f565b60405180910390fd5b61151d836000848460405180602001604052806000815250611b2d565b505050565b61152a611c4f565b6001600460006101000a81548160ff0219169083151502179055507f62e78cea01bee320cd4e420270b5ea74000d11b0c9f74754ebdbfc544b05a25861156e611085565b60405161157b919061360f565b60405180910390a1565b600073ffffffffffffffffffffffffffffffffffffffff168273ffffffffffffffffffffffffffffffffffffffff16036115f75760006040517fced3e1000000000000000000000000000000000000000000000000000000000081526004016115ee919061360f565b60405180910390fd5b80600160008573ffffffffffffffffffffffffffffffffffffffff1673ffffffffffffffffffffffffffffffffffffffff16815260200190815260200160002060008473ffffffffffffffffffffffffffffffffffffffff1673ffffffffffffffffffffffffffffffffffffffff16815260200190815260200160002060006101000a81548160ff0219169083151502179055508173ffffffffffffffffffffffffffffffffffffffff168373ffffffffffffffffffffffffffffffffffffffff167f17307eab39ab6107e8899845ad3d59bd9653f200f220920489ca2b5937696c31836040516116e891906125e8565b60405180910390a3505050565b600073ffffffffffffffffffffffffffffffffffffffff168473ffffffffffffffffffffffffffffffffffffffff16036117675760006040517f57f447ce00000000000000000000000000000000000000000000000000000000815260040161175e919061360f565b60405180910390fd5b600073ffffffffffffffffffffffffffffffffffffffff168573ffffffffffffffffffffffffffffffffffffffff16036117d95760006040517f01a835140000000000000000000000000000000000000000000000000000000081526004016117d0919061360f565b60405180910390fd5b6000806117e68585611c1f565b915091506117f78787848487611b2d565b50505050505050565b600073ffffffffffffffffffffffffffffffffffffffff168373ffffffffffffffffffffffffffffffffffffffff16036118725760006040517f01a83514000000000000000000000000000000000000000000000000000000008152600401611869919061360f565b60405180910390fd5b60008061187f8484611c1f565b915091506118a0856000848460405180602001604052806000815250611b2d565b5050505050565b60007fd9b67a26000000000000000000000000000000000000000000000000000000007bffffffffffffffffffffffffffffffffffffffffffffffffffffffff1916827bffffffffffffffffffffffffffffffffffffffffffffffffffffffff1916148061197257507f0e89341c000000000000000000000000000000000000000000000000000000007bffffffffffffffffffffffffffffffffffffffffffffffffffffffff1916827bffffffffffffffffffffffffffffffffffffffffffffffffffffffff1916145b80611982575061198182611c90565b5b9050919050565b6119938282610b22565b6119d65780826040517fe2517d3f0000000000000000000000000000000000000000000000000000000081526004016119cd92919061362a565b60405180910390fd5b5050565b600080600090507a184f03e93ff9f4daa797ed6e38ed64bf6a1f0100000000000000008310611a38577a184f03e93ff9f4daa797ed6e38ed64bf6a1f0100000000000000008381611a2e57611a2d6135e0565b5b0492506040810190505b6d04ee2d6d415b85acef81000000008310611a75576d04ee2d6d415b85acef81000000008381611a6b57611a6a6135e0565b5b0492506020810190505b662386f26fc100008310611aa457662386f26fc100008381611a9a57611a996135e0565b5b0492506010810190505b6305f5e1008310611acd576305f5e1008381611ac357611ac26135e0565b5b0492506008810190505b6127108310611af2576127108381611ae857611ae76135e0565b5b0492506004810190505b60648310611b155760648381611b0b57611b0a6135e0565b5b0492506002810190505b600a8310611b24576001810190505b80915050919050565b611b3985858585611cfa565b600073ffffffffffffffffffffffffffffffffffffffff168473ffffffffffffffffffffffffffffffffffffffff1614611bd8576000611b77611085565b90506001845103611bc7576000611b986000866113e190919063ffffffff16565b90506000611bb06000866113e190919063ffffffff16565b9050611bc0838989858589611d0c565b5050611bd6565b611bd5818787878787611ec0565b5b505b5050505050565b611be76109ed565b611c1d576040517f8dfc202b00000000000000000000000000000000000000000000000000000000815260040160405180910390fd5b565b60608060405191506001825283602083015260408201905060018152826020820152604081016040529250929050565b611c576109ed565b15611c8e576040517fd93c066500000000000000000000000000000000000000000000000000000000815260040160405180910390fd5b565b60007f01ffc9a7000000000000000000000000000000000000000000000000000000007bffffffffffffffffffffffffffffffffffffffffffffffffffffffff1916827bffffffffffffffffffffffffffffffffffffffffffffffffffffffff1916149050919050565b611d0684848484612074565b50505050565b60008473ffffffffffffffffffffffffffffffffffffffff163b1115611eb8578373ffffffffffffffffffffffffffffffffffffffff1663f23a6e6187878686866040518663ffffffff1660e01b8152600401611d6d9594939291906136a8565b6020604051808303816000875af1925050508015611da957506040513d601f19601f82011682018060405250810190611da69190613717565b60015b611e2d573d8060008114611dd9576040519150601f19603f3d011682016040523d82523d6000602084013e611dde565b606091505b506000815103611e2557846040517f57f447ce000000000000000000000000000000000000000000000000000000008152600401611e1c919061360f565b60405180910390fd5b805181602001fd5b63f23a6e6160e01b7bffffffffffffffffffffffffffffffffffffffffffffffffffffffff1916817bffffffffffffffffffffffffffffffffffffffffffffffffffffffff191614611eb657846040517f57f447ce000000000000000000000000000000000000000000000000000000008152600401611ead919061360f565b60405180910390fd5b505b505050505050565b60008473ffffffffffffffffffffffffffffffffffffffff163b111561206c578373ffffffffffffffffffffffffffffffffffffffff1663bc197c8187878686866040518663ffffffff1660e01b8152600401611f21959493929190613744565b6020604051808303816000875af1925050508015611f5d57506040513d601f19601f82011682018060405250810190611f5a9190613717565b60015b611fe1573d8060008114611f8d576040519150601f19603f3d011682016040523d82523d6000602084013e611f92565b606091505b506000815103611fd957846040517f57f447ce000000000000000000000000000000000000000000000000000000008152600401611fd0919061360f565b60405180910390fd5b805181602001fd5b63bc197c8160e01b7bffffffffffffffffffffffffffffffffffffffffffffffffffffffff1916817bffffffffffffffffffffffffffffffffffffffffffffffffffffffff19161461206a57846040517f57f447ce000000000000000000000000000000000000000000000000000000008152600401612061919061360f565b60405180910390fd5b505b505050505050565b61207c611c4f565b6120888484848461208e565b50505050565b80518251146120d857815181516040517f5b0599910000000000000000000000000000000000000000000000000000000081526004016120cf9291906132d9565b60405180910390fd5b60006120e2611085565b905060005b83518110156122f157600061210582866113e190919063ffffffff16565b9050600061211c83866113e190919063ffffffff16565b9050600073ffffffffffffffffffffffffffffffffffffffff168873ffffffffffffffffffffffffffffffffffffffff161461224957600080600084815260200190815260200160002060008a73ffffffffffffffffffffffffffffffffffffffff1673ffffffffffffffffffffffffffffffffffffffff168152602001908152602001600020549050818110156121f157888183856040517f03dee4c50000000000000000000000000000000000000000000000000000000081526004016121e894939291906137ac565b60405180910390fd5b81810360008085815260200190815260200160002060008b73ffffffffffffffffffffffffffffffffffffffff1673ffffffffffffffffffffffffffffffffffffffff16815260200190815260200160002081905550505b600073ffffffffffffffffffffffffffffffffffffffff168773ffffffffffffffffffffffffffffffffffffffff16146122e4578060008084815260200190815260200160002060008973ffffffffffffffffffffffffffffffffffffffff1673ffffffffffffffffffffffffffffffffffffffff16815260200190815260200160002060008282546122dc9190613820565b925050819055505b50508060010190506120e7565b5060018351036123b05760006123116000856113e190919063ffffffff16565b905060006123296000856113e190919063ffffffff16565b90508573ffffffffffffffffffffffffffffffffffffffff168773ffffffffffffffffffffffffffffffffffffffff168473ffffffffffffffffffffffffffffffffffffffff167fc3d58168c5ae7397731d063d5bbf3d657854427343f4c083240f7aacaa2d0f6285856040516123a19291906132d9565b60405180910390a4505061242f565b8373ffffffffffffffffffffffffffffffffffffffff168573ffffffffffffffffffffffffffffffffffffffff168273ffffffffffffffffffffffffffffffffffffffff167f4a39dc06d4c0dbc64b70af90fd698a233a518aa5d07e595d983b8c0526c8f7fb8686604051612426929190613854565b60405180910390a45b5050505050565b6000604051905090565b600080fd5b600080fd5b600073ffffffffffffffffffffffffffffffffffffffff82169050919050565b60006124758261244a565b9050919050565b6124858161246a565b811461249057600080fd5b50565b6000813590506124a28161247c565b92915050565b6000819050919050565b6124bb816124a8565b81146124c657600080fd5b50565b6000813590506124d8816124b2565b92915050565b600080604083850312156124f5576124f4612440565b5b600061250385828601612493565b9250506020612514858286016124c9565b9150509250929050565b612527816124a8565b82525050565b6000602082019050612542600083018461251e565b92915050565b60007fffffffff0000000000000000000000000000000000000000000000000000000082169050919050565b61257d81612548565b811461258857600080fd5b50565b60008135905061259a81612574565b92915050565b6000602082840312156125b6576125b5612440565b5b60006125c48482850161258b565b91505092915050565b60008115159050919050565b6125e2816125cd565b82525050565b60006020820190506125fd60008301846125d9565b92915050565b600080fd5b600080fd5b6000601f19601f8301169050919050565b7f4e487b7100000000000000000000000000000000000000000000000000000000600052604160045260246000fd5b6126568261260d565b810181811067ffffffffffffffff821117156126755761267461261e565b5b80604052505050565b6000612688612436565b9050612694828261264d565b919050565b600067ffffffffffffffff8211156126b4576126b361261e565b5b6126bd8261260d565b9050602081019050919050565b82818337600083830152505050565b60006126ec6126e784612699565b61267e565b90508281526020810184848401111561270857612707612608565b5b6127138482856126ca565b509392505050565b600082601f8301126127305761272f612603565b5b81356127408482602086016126d9565b91505092915050565b60006020828403121561275f5761275e612440565b5b600082013567ffffffffffffffff81111561277d5761277c612445565b5b6127898482850161271b565b91505092915050565b6000602082840312156127a8576127a7612440565b5b60006127b6848285016124c9565b91505092915050565b600081519050919050565b600082825260208201905092915050565b60005b838110156127f95780820151818401526020810190506127de565b60008484015250505050565b6000612810826127bf565b61281a81856127ca565b935061282a8185602086016127db565b6128338161260d565b840191505092915050565b600060208201905081810360008301526128588184612805565b905092915050565b600067ffffffffffffffff82111561287b5761287a61261e565b5b602082029050602081019050919050565b600080fd5b60006128a461289f84612860565b61267e565b905080838252602082019050602084028301858111156128c7576128c661288c565b5b835b818110156128f057806128dc88826124c9565b8452602084019350506020810190506128c9565b5050509392505050565b600082601f83011261290f5761290e612603565b5b813561291f848260208601612891565b91505092915050565b600067ffffffffffffffff8211156129435761294261261e565b5b61294c8261260d565b9050602081019050919050565b600061296c61296784612928565b61267e565b90508281526020810184848401111561298857612987612608565b5b6129938482856126ca565b509392505050565b600082601f8301126129b0576129af612603565b5b81356129c0848260208601612959565b91505092915050565b600080600080608085870312156129e3576129e2612440565b5b60006129f187828801612493565b945050602085013567ffffffffffffffff811115612a1257612a11612445565b5b612a1e878288016128fa565b935050604085013567ffffffffffffffff811115612a3f57612a3e612445565b5b612a4b878288016128fa565b925050606085013567ffffffffffffffff811115612a6c57612a6b612445565b5b612a788782880161299b565b91505092959194509250565b6000819050919050565b612a9781612a84565b8114612aa257600080fd5b50565b600081359050612ab481612a8e565b92915050565b600060208284031215612ad057612acf612440565b5b6000612ade84828501612aa5565b91505092915050565b612af081612a84565b82525050565b6000602082019050612b0b6000830184612ae7565b92915050565b60008060408385031215612b2857612b27612440565b5b6000612b3685828601612493565b925050602083013567ffffffffffffffff811115612b5757612b56612445565b5b612b63858286016128fa565b9150509250929050565b600081519050919050565b600082825260208201905092915050565b6000819050602082019050919050565b612ba2816124a8565b82525050565b6000612bb48383612b99565b60208301905092915050565b6000602082019050919050565b6000612bd882612b6d565b612be28185612b78565b9350612bed83612b89565b8060005b83811015612c1e578151612c058882612ba8565b9750612c1083612bc0565b925050600181019050612bf1565b5085935050505092915050565b60006020820190508181036000830152612c458184612bcd565b905092915050565b600080600080600060a08688031215612c6957612c68612440565b5b6000612c7788828901612493565b9550506020612c8888828901612493565b945050604086013567ffffffffffffffff811115612ca957612ca8612445565b5b612cb5888289016128fa565b935050606086013567ffffffffffffffff811115612cd657612cd5612445565b5b612ce2888289016128fa565b925050608086013567ffffffffffffffff811115612d0357612d02612445565b5b612d0f8882890161299b565b9150509295509295909350565b60008060408385031215612d3357612d32612440565b5b6000612d4185828601612aa5565b9250506020612d5285828601612493565b9150509250929050565b600067ffffffffffffffff821115612d7757612d7661261e565b5b602082029050602081019050919050565b6000612d9b612d9684612d5c565b61267e565b90508083825260208201905060208402830185811115612dbe57612dbd61288c565b5b835b81811015612de75780612dd38882612493565b845260208401935050602081019050612dc0565b5050509392505050565b600082601f830112612e0657612e05612603565b5b8135612e16848260208601612d88565b91505092915050565b60008060408385031215612e3657612e35612440565b5b600083013567ffffffffffffffff811115612e5457612e53612445565b5b612e6085828601612df1565b925050602083013567ffffffffffffffff811115612e8157612e80612445565b5b612e8d858286016128fa565b9150509250929050565b60008060008060808587031215612eb157612eb0612440565b5b600085013567ffffffffffffffff811115612ecf57612ece612445565b5b612edb87828801612df1565b945050602085013567ffffffffffffffff811115612efc57612efb612445565b5b612f08878288016128fa565b935050604085013567ffffffffffffffff811115612f2957612f28612445565b5b612f35878288016128fa565b925050606085013567ffffffffffffffff811115612f5657612f55612445565b5b612f628782880161299b565b91505092959194509250565b600080600060608486031215612f8757612f86612440565b5b6000612f9586828701612493565b935050602084013567ffffffffffffffff811115612fb657612fb5612445565b5b612fc2868287016128fa565b925050604084013567ffffffffffffffff811115612fe357612fe2612445565b5b612fef868287016128fa565b9150509250925092565b6000806000806080858703121561301357613012612440565b5b600061302187828801612493565b9450506020613032878288016124c9565b9350506040613043878288016124c9565b925050606085013567ffffffffffffffff81111561306457613063612445565b5b6130708782880161299b565b91505092959194509250565b613085816125cd565b811461309057600080fd5b50565b6000813590506130a28161307c565b92915050565b600080604083850312156130bf576130be612440565b5b60006130cd85828601612493565b92505060206130de85828601613093565b9150509250929050565b600080604083850312156130ff576130fe612440565b5b600061310d85828601612493565b925050602061311e85828601612493565b9150509250929050565b600080600080600060a0868803121561314457613143612440565b5b600061315288828901612493565b955050602061316388828901612493565b9450506040613174888289016124c9565b9350506060613185888289016124c9565b925050608086013567ffffffffffffffff8111156131a6576131a5612445565b5b6131b28882890161299b565b9150509295509295909350565b6000806000606084860312156131d8576131d7612440565b5b60006131e686828701612493565b93505060206131f7868287016124c9565b9250506040613208868287016124c9565b9150509250925092565b600081905092915050565b6000613228826127bf565b6132328185613212565b93506132428185602086016127db565b80840191505092915050565b600061325a828561321d565b9150613266828461321d565b91508190509392505050565b7f4e487b7100000000000000000000000000000000000000000000000000000000600052603260045260246000fd5b6132aa8161246a565b82525050565b60006040820190506132c560008301856132a1565b6132d260208301846132a1565b9392505050565b60006040820190506132ee600083018561251e565b6132fb602083018461251e565b9392505050565b7f4e487b7100000000000000000000000000000000000000000000000000000000600052602260045260246000fd5b6000600282049050600182168061334957607f821691505b60208210810361335c5761335b613302565b5b50919050565b60008190508160005260206000209050919050565b60006020601f8301049050919050565b600082821b905092915050565b6000600883026133c47fffffffffffffffffffffffffffffffffffffffffffffffffffffffffffffffff82613387565b6133ce8683613387565b95508019841693508086168417925050509392505050565b6000819050919050565b600061340b613406613401846124a8565b6133e6565b6124a8565b9050919050565b6000819050919050565b613425836133f0565b61343961343182613412565b848454613394565b825550505050565b600090565b61344e613441565b61345981848461341c565b505050565b5b8181101561347d57613472600082613446565b60018101905061345f565b5050565b601f8211156134c25761349381613362565b61349c84613377565b810160208510156134ab578190505b6134bf6134b785613377565b83018261345e565b50505b505050565b600082821c905092915050565b60006134e5600019846008026134c7565b1980831691505092915050565b60006134fe83836134d4565b9150826002028217905092915050565b613517826127bf565b67ffffffffffffffff8111156135305761352f61261e565b5b61353a8254613331565b613545828285613481565b600060209050601f8311600181146135785760008415613566578287015190505b61357085826134f2565b8655506135d8565b601f19841661358686613362565b60005b828110156135ae57848901518255600182019150602085019450602081019050613589565b868310156135cb57848901516135c7601f8916826134d4565b8355505b6001600288020188555050505b505050505050565b7f4e487b7100000000000000000000000000000000000000000000000000000000600052601260045260246000fd5b600060208201905061362460008301846132a1565b92915050565b600060408201905061363f60008301856132a1565b61364c6020830184612ae7565b9392505050565b600081519050919050565b600082825260208201905092915050565b600061367a82613653565b613684818561365e565b93506136948185602086016127db565b61369d8161260d565b840191505092915050565b600060a0820190506136bd60008301886132a1565b6136ca60208301876132a1565b6136d7604083018661251e565b6136e4606083018561251e565b81810360808301526136f6818461366f565b90509695505050505050565b60008151905061371181612574565b92915050565b60006020828403121561372d5761372c612440565b5b600061373b84828501613702565b91505092915050565b600060a08201905061375960008301886132a1565b61376660208301876132a1565b81810360408301526137788186612bcd565b9050818103606083015261378c8185612bcd565b905081810360808301526137a0818461366f565b90509695505050505050565b60006080820190506137c160008301876132a1565b6137ce602083018661251e565b6137db604083018561251e565b6137e8606083018461251e565b95945050505050565b7f4e487b7100000000000000000000000000000000000000000000000000000000600052601160045260246000fd5b600061382b826124a8565b9150613836836124a8565b925082820190508082111561384e5761384d6137f1565b5b92915050565b6000604082019050818103600083015261386e8185612bcd565b905081810360208301526138828184612bcd565b9050939250505056fea2646970667358221220de4657d6119879238916b21e9543f4338477f29cb36425f7c906c598b557d3a964736f6c634300081c0033",
  "linkReferences": {},
  "deployedLinkReferences": {}
}